{
	"data": {
		"bytecode": {
			"linkReferences": {},
			"object": "608060405234801561001057600080fd5b50336000806101000a81548173ffffffffffffffffffffffffffffffffffffffff021916908373ffffffffffffffffffffffffffffffffffffffff160217905550611246806100606000396000f3fe608060405234801561001057600080fd5b506004361061004c5760003560e01c8063416928dd14610051578063bfc2e9381461006d578063c590fa9e1461008b578063f01ca6b7146100a9575b600080fd5b61006b60048036038101906100669190610951565b6100c5565b005b610075610292565b6040516100829190610c91565b60405180910390f35b61009361035f565b6040516100a09190610c91565b60405180910390f35b6100c360048036038101906100be91906109c9565b61049d565b005b806000600190506000826040516020016100df9190610bec565b60405160208183030381529060405280519060200120905060005b600380549050811015610145576003818154811061011b5761011a611083565b5b906000526020600020015482141561013257600092505b808061013d90610fad565b9150506100fa565b5081610186576040517f08c379a000000000000000000000000000000000000000000000000000000000815260040161017d90610cf3565b60405180910390fd5b6000856040516020016101999190610bec565b6040516020818303038152906040528051906020012090506000856040516020016101c49190610bec565b6040516020818303038152906040528051906020012090506101e582610641565b610224576040517f08c379a000000000000000000000000000000000000000000000000000000000815260040161021b90610cd3565b60405180910390fd5b6001806000848152602001908152602001600020600201546102469190610da5565b6001600084815260200190815260200160002060020181905550600381908060018154018082558091505060019003906000526020600020016000909190919091505550505050505050565b6060600060405180602001604052806000815250905060005b600280549050811015610357578160016000600284815481106102d1576102d0611083565b5b90600052602060002001548152602001908152602001600020600001600160006002858154811061030557610304611083565b5b9060005260206000200154815260200190815260200160002060030160405160200161033393929190610c4a565b6040516020818303038152906040529150808061034f90610fad565b9150506102ab565b508091505090565b60606000600280549050111561046157600060405180602001604052806000815250905060005b600280549050811015610457578160016000600284815481106103ac576103ab611083565b5b90600052602060002001548152602001908152602001600020600001610421600380549050606460016000600288815481106103eb576103ea611083565b5b90600052602060002001548152602001908152602001600020600201546104129190610e63565b61041c9190610e32565b6106a0565b60405160200161043393929190610c03565b6040516020818303038152906040529150808061044f90610fad565b915050610386565b508091505061049a565b6040518060400160405280601a81526020017f4e6f2073652068616e207265616c697a61646f20766f746f732e00000000000081525090505b90565b806000600190506000826040516020016104b79190610bec565b60405160208183030381529060405280519060200120905060005b60028054905081101561051d57600281815481106104f3576104f2611083565b5b906000526020600020015482141561050a57600092505b808061051590610fad565b9150506104d2565b508161055e576040517f08c379a000000000000000000000000000000000000000000000000000000000815260040161055590610cb3565b60405180910390fd5b6000846040516020016105719190610bec565b604051602081830303815290604052805190602001209050604051806080016040528088815260200187815260200160008152602001868152506001600083815260200190815260200160002060008201518160000190805190602001906105da929190610829565b506020820151816001015560408201518160020155606082015181600301908051906020019061060b929190610829565b50905050600281908060018154018082558091505060019003906000526020600020016000909190919091505550505050505050565b6000806000905060005b600280549050811015610696576002818154811061066c5761066b611083565b5b906000526020600020015484141561068357600191505b808061068e90610fad565b91505061064b565b5080915050919050565b606060008214156106e8576040518060400160405280600181526020017f30000000000000000000000000000000000000000000000000000000000000008152509050610824565b600082905060005b6000821461071a57808061070390610fad565b915050600a826107139190610e32565b91506106f0565b60008167ffffffffffffffff811115610736576107356110b2565b5b6040519080825280601f01601f1916602001820160405280156107685781602001600182028036833780820191505090505b50905060008290505b6000861461081c576001816107869190610ebd565b90506000600a80886107989190610e32565b6107a29190610e63565b876107ad9190610ebd565b60306107b99190610dfb565b905060008160f81b9050808484815181106107d7576107d6611083565b5b60200101907effffffffffffffffffffffffffffffffffffffffffffffffffffffffffffff1916908160001a905350600a886108139190610e32565b97505050610771565b819450505050505b919050565b82805461083590610f4a565b90600052602060002090601f016020900481019282610857576000855561089e565b82601f1061087057805160ff191683800117855561089e565b8280016001018555821561089e579182015b8281111561089d578251825591602001919060010190610882565b5b5090506108ab91906108af565b5090565b5b808211156108c85760008160009055506001016108b0565b5090565b60006108df6108da84610d38565b610d13565b9050828152602081018484840111156108fb576108fa6110e6565b5b610906848285610f08565b509392505050565b600082601f830112610923576109226110e1565b5b81356109338482602086016108cc565b91505092915050565b60008135905061094b816111f9565b92915050565b60008060408385031215610968576109676110f0565b5b600083013567ffffffffffffffff811115610986576109856110eb565b5b6109928582860161090e565b925050602083013567ffffffffffffffff8111156109b3576109b26110eb565b5b6109bf8582860161090e565b9150509250929050565b6000806000606084860312156109e2576109e16110f0565b5b600084013567ffffffffffffffff811115610a00576109ff6110eb565b5b610a0c8682870161090e565b9350506020610a1d8682870161093c565b925050604084013567ffffffffffffffff811115610a3e57610a3d6110eb565b5b610a4a8682870161090e565b9150509250925092565b6000610a5f82610d7e565b610a698185610d89565b9350610a79818560208601610f17565b610a82816110f5565b840191505092915050565b6000610a9882610d7e565b610aa28185610d9a565b9350610ab2818560208601610f17565b80840191505092915050565b60008154610acb81610f4a565b610ad58186610d9a565b94506001821660008114610af05760018114610b0157610b34565b60ff19831686528186019350610b34565b610b0a85610d69565b60005b83811015610b2c57815481890152600182019150602081019050610b0d565b838801955050505b50505092915050565b6000610b4a600183610d9a565b9150610b5582611106565b600182019050919050565b6000610b6d602a83610d89565b9150610b788261112f565b604082019050919050565b6000610b90601f83610d89565b9150610b9b8261117e565b602082019050919050565b6000610bb3601e83610d89565b9150610bbe826111a7565b602082019050919050565b6000610bd6600183610d9a565b9150610be1826111d0565b600182019050919050565b6000610bf88284610a8d565b915081905092915050565b6000610c0f8286610a8d565b9150610c1a82610b3d565b9150610c268285610abe565b9150610c3182610bc9565b9150610c3d8284610a8d565b9150819050949350505050565b6000610c568286610a8d565b9150610c6182610b3d565b9150610c6d8285610abe565b9150610c7882610bc9565b9150610c848284610abe565b9150819050949350505050565b60006020820190508181036000830152610cab8184610a54565b905092915050565b60006020820190508181036000830152610ccc81610b60565b9050919050565b60006020820190508181036000830152610cec81610b83565b9050919050565b60006020820190508181036000830152610d0c81610ba6565b9050919050565b6000610d1d610d2e565b9050610d298282610f7c565b919050565b6000604051905090565b600067ffffffffffffffff821115610d5357610d526110b2565b5b610d5c826110f5565b9050602081019050919050565b60008190508160005260206000209050919050565b600081519050919050565b600082825260208201905092915050565b600081905092915050565b6000610db082610ef1565b9150610dbb83610ef1565b9250827fffffffffffffffffffffffffffffffffffffffffffffffffffffffffffffffff03821115610df057610def610ff6565b5b828201905092915050565b6000610e0682610efb565b9150610e1183610efb565b92508260ff03821115610e2757610e26610ff6565b5b828201905092915050565b6000610e3d82610ef1565b9150610e4883610ef1565b925082610e5857610e57611025565b5b828204905092915050565b6000610e6e82610ef1565b9150610e7983610ef1565b9250817fffffffffffffffffffffffffffffffffffffffffffffffffffffffffffffffff0483118215151615610eb257610eb1610ff6565b5b828202905092915050565b6000610ec882610ef1565b9150610ed383610ef1565b925082821015610ee657610ee5610ff6565b5b828203905092915050565b6000819050919050565b600060ff82169050919050565b82818337600083830152505050565b60005b83811015610f35578082015181840152602081019050610f1a565b83811115610f44576000848401525b50505050565b60006002820490506001821680610f6257607f821691505b60208210811415610f7657610f75611054565b5b50919050565b610f85826110f5565b810181811067ffffffffffffffff82111715610fa457610fa36110b2565b5b80604052505050565b6000610fb882610ef1565b91507fffffffffffffffffffffffffffffffffffffffffffffffffffffffffffffffff821415610feb57610fea610ff6565b5b600182019050919050565b7f4e487b7100000000000000000000000000000000000000000000000000000000600052601160045260246000fd5b7f4e487b7100000000000000000000000000000000000000000000000000000000600052601260045260246000fd5b7f4e487b7100000000000000000000000000000000000000000000000000000000600052602260045260246000fd5b7f4e487b7100000000000000000000000000000000000000000000000000000000600052603260045260246000fd5b7f4e487b7100000000000000000000000000000000000000000000000000000000600052604160045260246000fd5b600080fd5b600080fd5b600080fd5b600080fd5b6000601f19601f8301169050919050565b7f2a00000000000000000000000000000000000000000000000000000000000000600082015250565b7f457374652063616e64696461746f20796120736520656e6375656e747261207260008201527f65676973747261646f2e00000000000000000000000000000000000000000000602082015250565b7f456c2063616e64696461746f20656c656769646f206e6f206578697374652e00600082015250565b7f5573746564207961206861207265616c697a61646f20737520766f746f2e0000600082015250565b7f3a00000000000000000000000000000000000000000000000000000000000000600082015250565b61120281610ef1565b811461120d57600080fd5b5056fea2646970667358221220456caa28f5a4b06da02c920f6b74c10279da3f7246d2a0ce7ad7f6175a1b681264736f6c63430008070033",
			"opcodes": "PUSH1 0x80 PUSH1 0x40 MSTORE CALLVALUE DUP1 ISZERO PUSH2 0x10 JUMPI PUSH1 0x0 DUP1 REVERT JUMPDEST POP CALLER PUSH1 0x0 DUP1 PUSH2 0x100 EXP DUP2 SLOAD DUP2 PUSH20 0xFFFFFFFFFFFFFFFFFFFFFFFFFFFFFFFFFFFFFFFF MUL NOT AND SWAP1 DUP4 PUSH20 0xFFFFFFFFFFFFFFFFFFFFFFFFFFFFFFFFFFFFFFFF AND MUL OR SWAP1 SSTORE POP PUSH2 0x1246 DUP1 PUSH2 0x60 PUSH1 0x0 CODECOPY PUSH1 0x0 RETURN INVALID PUSH1 0x80 PUSH1 0x40 MSTORE CALLVALUE DUP1 ISZERO PUSH2 0x10 JUMPI PUSH1 0x0 DUP1 REVERT JUMPDEST POP PUSH1 0x4 CALLDATASIZE LT PUSH2 0x4C JUMPI PUSH1 0x0 CALLDATALOAD PUSH1 0xE0 SHR DUP1 PUSH4 0x416928DD EQ PUSH2 0x51 JUMPI DUP1 PUSH4 0xBFC2E938 EQ PUSH2 0x6D JUMPI DUP1 PUSH4 0xC590FA9E EQ PUSH2 0x8B JUMPI DUP1 PUSH4 0xF01CA6B7 EQ PUSH2 0xA9 JUMPI JUMPDEST PUSH1 0x0 DUP1 REVERT JUMPDEST PUSH2 0x6B PUSH1 0x4 DUP1 CALLDATASIZE SUB DUP2 ADD SWAP1 PUSH2 0x66 SWAP2 SWAP1 PUSH2 0x951 JUMP JUMPDEST PUSH2 0xC5 JUMP JUMPDEST STOP JUMPDEST PUSH2 0x75 PUSH2 0x292 JUMP JUMPDEST PUSH1 0x40 MLOAD PUSH2 0x82 SWAP2 SWAP1 PUSH2 0xC91 JUMP JUMPDEST PUSH1 0x40 MLOAD DUP1 SWAP2 SUB SWAP1 RETURN JUMPDEST PUSH2 0x93 PUSH2 0x35F JUMP JUMPDEST PUSH1 0x40 MLOAD PUSH2 0xA0 SWAP2 SWAP1 PUSH2 0xC91 JUMP JUMPDEST PUSH1 0x40 MLOAD DUP1 SWAP2 SUB SWAP1 RETURN JUMPDEST PUSH2 0xC3 PUSH1 0x4 DUP1 CALLDATASIZE SUB DUP2 ADD SWAP1 PUSH2 0xBE SWAP2 SWAP1 PUSH2 0x9C9 JUMP JUMPDEST PUSH2 0x49D JUMP JUMPDEST STOP JUMPDEST DUP1 PUSH1 0x0 PUSH1 0x1 SWAP1 POP PUSH1 0x0 DUP3 PUSH1 0x40 MLOAD PUSH1 0x20 ADD PUSH2 0xDF SWAP2 SWAP1 PUSH2 0xBEC JUMP JUMPDEST PUSH1 0x40 MLOAD PUSH1 0x20 DUP2 DUP4 SUB SUB DUP2 MSTORE SWAP1 PUSH1 0x40 MSTORE DUP1 MLOAD SWAP1 PUSH1 0x20 ADD KECCAK256 SWAP1 POP PUSH1 0x0 JUMPDEST PUSH1 0x3 DUP1 SLOAD SWAP1 POP DUP2 LT ISZERO PUSH2 0x145 JUMPI PUSH1 0x3 DUP2 DUP2 SLOAD DUP2 LT PUSH2 0x11B JUMPI PUSH2 0x11A PUSH2 0x1083 JUMP JUMPDEST JUMPDEST SWAP1 PUSH1 0x0 MSTORE PUSH1 0x20 PUSH1 0x0 KECCAK256 ADD SLOAD DUP3 EQ ISZERO PUSH2 0x132 JUMPI PUSH1 0x0 SWAP3 POP JUMPDEST DUP1 DUP1 PUSH2 0x13D SWAP1 PUSH2 0xFAD JUMP JUMPDEST SWAP2 POP POP PUSH2 0xFA JUMP JUMPDEST POP DUP2 PUSH2 0x186 JUMPI PUSH1 0x40 MLOAD PUSH32 0x8C379A000000000000000000000000000000000000000000000000000000000 DUP2 MSTORE PUSH1 0x4 ADD PUSH2 0x17D SWAP1 PUSH2 0xCF3 JUMP JUMPDEST PUSH1 0x40 MLOAD DUP1 SWAP2 SUB SWAP1 REVERT JUMPDEST PUSH1 0x0 DUP6 PUSH1 0x40 MLOAD PUSH1 0x20 ADD PUSH2 0x199 SWAP2 SWAP1 PUSH2 0xBEC JUMP JUMPDEST PUSH1 0x40 MLOAD PUSH1 0x20 DUP2 DUP4 SUB SUB DUP2 MSTORE SWAP1 PUSH1 0x40 MSTORE DUP1 MLOAD SWAP1 PUSH1 0x20 ADD KECCAK256 SWAP1 POP PUSH1 0x0 DUP6 PUSH1 0x40 MLOAD PUSH1 0x20 ADD PUSH2 0x1C4 SWAP2 SWAP1 PUSH2 0xBEC JUMP JUMPDEST PUSH1 0x40 MLOAD PUSH1 0x20 DUP2 DUP4 SUB SUB DUP2 MSTORE SWAP1 PUSH1 0x40 MSTORE DUP1 MLOAD SWAP1 PUSH1 0x20 ADD KECCAK256 SWAP1 POP PUSH2 0x1E5 DUP3 PUSH2 0x641 JUMP JUMPDEST PUSH2 0x224 JUMPI PUSH1 0x40 MLOAD PUSH32 0x8C379A000000000000000000000000000000000000000000000000000000000 DUP2 MSTORE PUSH1 0x4 ADD PUSH2 0x21B SWAP1 PUSH2 0xCD3 JUMP JUMPDEST PUSH1 0x40 MLOAD DUP1 SWAP2 SUB SWAP1 REVERT JUMPDEST PUSH1 0x1 DUP1 PUSH1 0x0 DUP5 DUP2 MSTORE PUSH1 0x20 ADD SWAP1 DUP2 MSTORE PUSH1 0x20 ADD PUSH1 0x0 KECCAK256 PUSH1 0x2 ADD SLOAD PUSH2 0x246 SWAP2 SWAP1 PUSH2 0xDA5 JUMP JUMPDEST PUSH1 0x1 PUSH1 0x0 DUP5 DUP2 MSTORE PUSH1 0x20 ADD SWAP1 DUP2 MSTORE PUSH1 0x20 ADD PUSH1 0x0 KECCAK256 PUSH1 0x2 ADD DUP2 SWAP1 SSTORE POP PUSH1 0x3 DUP2 SWAP1 DUP1 PUSH1 0x1 DUP2 SLOAD ADD DUP1 DUP3 SSTORE DUP1 SWAP2 POP POP PUSH1 0x1 SWAP1 SUB SWAP1 PUSH1 0x0 MSTORE PUSH1 0x20 PUSH1 0x0 KECCAK256 ADD PUSH1 0x0 SWAP1 SWAP2 SWAP1 SWAP2 SWAP1 SWAP2 POP SSTORE POP POP POP POP POP POP POP JUMP JUMPDEST PUSH1 0x60 PUSH1 0x0 PUSH1 0x40 MLOAD DUP1 PUSH1 0x20 ADD PUSH1 0x40 MSTORE DUP1 PUSH1 0x0 DUP2 MSTORE POP SWAP1 POP PUSH1 0x0 JUMPDEST PUSH1 0x2 DUP1 SLOAD SWAP1 POP DUP2 LT ISZERO PUSH2 0x357 JUMPI DUP2 PUSH1 0x1 PUSH1 0x0 PUSH1 0x2 DUP5 DUP2 SLOAD DUP2 LT PUSH2 0x2D1 JUMPI PUSH2 0x2D0 PUSH2 0x1083 JUMP JUMPDEST JUMPDEST SWAP1 PUSH1 0x0 MSTORE PUSH1 0x20 PUSH1 0x0 KECCAK256 ADD SLOAD DUP2 MSTORE PUSH1 0x20 ADD SWAP1 DUP2 MSTORE PUSH1 0x20 ADD PUSH1 0x0 KECCAK256 PUSH1 0x0 ADD PUSH1 0x1 PUSH1 0x0 PUSH1 0x2 DUP6 DUP2 SLOAD DUP2 LT PUSH2 0x305 JUMPI PUSH2 0x304 PUSH2 0x1083 JUMP JUMPDEST JUMPDEST SWAP1 PUSH1 0x0 MSTORE PUSH1 0x20 PUSH1 0x0 KECCAK256 ADD SLOAD DUP2 MSTORE PUSH1 0x20 ADD SWAP1 DUP2 MSTORE PUSH1 0x20 ADD PUSH1 0x0 KECCAK256 PUSH1 0x3 ADD PUSH1 0x40 MLOAD PUSH1 0x20 ADD PUSH2 0x333 SWAP4 SWAP3 SWAP2 SWAP1 PUSH2 0xC4A JUMP JUMPDEST PUSH1 0x40 MLOAD PUSH1 0x20 DUP2 DUP4 SUB SUB DUP2 MSTORE SWAP1 PUSH1 0x40 MSTORE SWAP2 POP DUP1 DUP1 PUSH2 0x34F SWAP1 PUSH2 0xFAD JUMP JUMPDEST SWAP2 POP POP PUSH2 0x2AB JUMP JUMPDEST POP DUP1 SWAP2 POP POP SWAP1 JUMP JUMPDEST PUSH1 0x60 PUSH1 0x0 PUSH1 0x2 DUP1 SLOAD SWAP1 POP GT ISZERO PUSH2 0x461 JUMPI PUSH1 0x0 PUSH1 0x40 MLOAD DUP1 PUSH1 0x20 ADD PUSH1 0x40 MSTORE DUP1 PUSH1 0x0 DUP2 MSTORE POP SWAP1 POP PUSH1 0x0 JUMPDEST PUSH1 0x2 DUP1 SLOAD SWAP1 POP DUP2 LT ISZERO PUSH2 0x457 JUMPI DUP2 PUSH1 0x1 PUSH1 0x0 PUSH1 0x2 DUP5 DUP2 SLOAD DUP2 LT PUSH2 0x3AC JUMPI PUSH2 0x3AB PUSH2 0x1083 JUMP JUMPDEST JUMPDEST SWAP1 PUSH1 0x0 MSTORE PUSH1 0x20 PUSH1 0x0 KECCAK256 ADD SLOAD DUP2 MSTORE PUSH1 0x20 ADD SWAP1 DUP2 MSTORE PUSH1 0x20 ADD PUSH1 0x0 KECCAK256 PUSH1 0x0 ADD PUSH2 0x421 PUSH1 0x3 DUP1 SLOAD SWAP1 POP PUSH1 0x64 PUSH1 0x1 PUSH1 0x0 PUSH1 0x2 DUP9 DUP2 SLOAD DUP2 LT PUSH2 0x3EB JUMPI PUSH2 0x3EA PUSH2 0x1083 JUMP JUMPDEST JUMPDEST SWAP1 PUSH1 0x0 MSTORE PUSH1 0x20 PUSH1 0x0 KECCAK256 ADD SLOAD DUP2 MSTORE PUSH1 0x20 ADD SWAP1 DUP2 MSTORE PUSH1 0x20 ADD PUSH1 0x0 KECCAK256 PUSH1 0x2 ADD SLOAD PUSH2 0x412 SWAP2 SWAP1 PUSH2 0xE63 JUMP JUMPDEST PUSH2 0x41C SWAP2 SWAP1 PUSH2 0xE32 JUMP JUMPDEST PUSH2 0x6A0 JUMP JUMPDEST PUSH1 0x40 MLOAD PUSH1 0x20 ADD PUSH2 0x433 SWAP4 SWAP3 SWAP2 SWAP1 PUSH2 0xC03 JUMP JUMPDEST PUSH1 0x40 MLOAD PUSH1 0x20 DUP2 DUP4 SUB SUB DUP2 MSTORE SWAP1 PUSH1 0x40 MSTORE SWAP2 POP DUP1 DUP1 PUSH2 0x44F SWAP1 PUSH2 0xFAD JUMP JUMPDEST SWAP2 POP POP PUSH2 0x386 JUMP JUMPDEST POP DUP1 SWAP2 POP POP PUSH2 0x49A JUMP JUMPDEST PUSH1 0x40 MLOAD DUP1 PUSH1 0x40 ADD PUSH1 0x40 MSTORE DUP1 PUSH1 0x1A DUP2 MSTORE PUSH1 0x20 ADD PUSH32 0x4E6F2073652068616E207265616C697A61646F20766F746F732E000000000000 DUP2 MSTORE POP SWAP1 POP JUMPDEST SWAP1 JUMP JUMPDEST DUP1 PUSH1 0x0 PUSH1 0x1 SWAP1 POP PUSH1 0x0 DUP3 PUSH1 0x40 MLOAD PUSH1 0x20 ADD PUSH2 0x4B7 SWAP2 SWAP1 PUSH2 0xBEC JUMP JUMPDEST PUSH1 0x40 MLOAD PUSH1 0x20 DUP2 DUP4 SUB SUB DUP2 MSTORE SWAP1 PUSH1 0x40 MSTORE DUP1 MLOAD SWAP1 PUSH1 0x20 ADD KECCAK256 SWAP1 POP PUSH1 0x0 JUMPDEST PUSH1 0x2 DUP1 SLOAD SWAP1 POP DUP2 LT ISZERO PUSH2 0x51D JUMPI PUSH1 0x2 DUP2 DUP2 SLOAD DUP2 LT PUSH2 0x4F3 JUMPI PUSH2 0x4F2 PUSH2 0x1083 JUMP JUMPDEST JUMPDEST SWAP1 PUSH1 0x0 MSTORE PUSH1 0x20 PUSH1 0x0 KECCAK256 ADD SLOAD DUP3 EQ ISZERO PUSH2 0x50A JUMPI PUSH1 0x0 SWAP3 POP JUMPDEST DUP1 DUP1 PUSH2 0x515 SWAP1 PUSH2 0xFAD JUMP JUMPDEST SWAP2 POP POP PUSH2 0x4D2 JUMP JUMPDEST POP DUP2 PUSH2 0x55E JUMPI PUSH1 0x40 MLOAD PUSH32 0x8C379A000000000000000000000000000000000000000000000000000000000 DUP2 MSTORE PUSH1 0x4 ADD PUSH2 0x555 SWAP1 PUSH2 0xCB3 JUMP JUMPDEST PUSH1 0x40 MLOAD DUP1 SWAP2 SUB SWAP1 REVERT JUMPDEST PUSH1 0x0 DUP5 PUSH1 0x40 MLOAD PUSH1 0x20 ADD PUSH2 0x571 SWAP2 SWAP1 PUSH2 0xBEC JUMP JUMPDEST PUSH1 0x40 MLOAD PUSH1 0x20 DUP2 DUP4 SUB SUB DUP2 MSTORE SWAP1 PUSH1 0x40 MSTORE DUP1 MLOAD SWAP1 PUSH1 0x20 ADD KECCAK256 SWAP1 POP PUSH1 0x40 MLOAD DUP1 PUSH1 0x80 ADD PUSH1 0x40 MSTORE DUP1 DUP9 DUP2 MSTORE PUSH1 0x20 ADD DUP8 DUP2 MSTORE PUSH1 0x20 ADD PUSH1 0x0 DUP2 MSTORE PUSH1 0x20 ADD DUP7 DUP2 MSTORE POP PUSH1 0x1 PUSH1 0x0 DUP4 DUP2 MSTORE PUSH1 0x20 ADD SWAP1 DUP2 MSTORE PUSH1 0x20 ADD PUSH1 0x0 KECCAK256 PUSH1 0x0 DUP3 ADD MLOAD DUP2 PUSH1 0x0 ADD SWAP1 DUP1 MLOAD SWAP1 PUSH1 0x20 ADD SWAP1 PUSH2 0x5DA SWAP3 SWAP2 SWAP1 PUSH2 0x829 JUMP JUMPDEST POP PUSH1 0x20 DUP3 ADD MLOAD DUP2 PUSH1 0x1 ADD SSTORE PUSH1 0x40 DUP3 ADD MLOAD DUP2 PUSH1 0x2 ADD SSTORE PUSH1 0x60 DUP3 ADD MLOAD DUP2 PUSH1 0x3 ADD SWAP1 DUP1 MLOAD SWAP1 PUSH1 0x20 ADD SWAP1 PUSH2 0x60B SWAP3 SWAP2 SWAP1 PUSH2 0x829 JUMP JUMPDEST POP SWAP1 POP POP PUSH1 0x2 DUP2 SWAP1 DUP1 PUSH1 0x1 DUP2 SLOAD ADD DUP1 DUP3 SSTORE DUP1 SWAP2 POP POP PUSH1 0x1 SWAP1 SUB SWAP1 PUSH1 0x0 MSTORE PUSH1 0x20 PUSH1 0x0 KECCAK256 ADD PUSH1 0x0 SWAP1 SWAP2 SWAP1 SWAP2 SWAP1 SWAP2 POP SSTORE POP POP POP POP POP POP POP JUMP JUMPDEST PUSH1 0x0 DUP1 PUSH1 0x0 SWAP1 POP PUSH1 0x0 JUMPDEST PUSH1 0x2 DUP1 SLOAD SWAP1 POP DUP2 LT ISZERO PUSH2 0x696 JUMPI PUSH1 0x2 DUP2 DUP2 SLOAD DUP2 LT PUSH2 0x66C JUMPI PUSH2 0x66B PUSH2 0x1083 JUMP JUMPDEST JUMPDEST SWAP1 PUSH1 0x0 MSTORE PUSH1 0x20 PUSH1 0x0 KECCAK256 ADD SLOAD DUP5 EQ ISZERO PUSH2 0x683 JUMPI PUSH1 0x1 SWAP2 POP JUMPDEST DUP1 DUP1 PUSH2 0x68E SWAP1 PUSH2 0xFAD JUMP JUMPDEST SWAP2 POP POP PUSH2 0x64B JUMP JUMPDEST POP DUP1 SWAP2 POP POP SWAP2 SWAP1 POP JUMP JUMPDEST PUSH1 0x60 PUSH1 0x0 DUP3 EQ ISZERO PUSH2 0x6E8 JUMPI PUSH1 0x40 MLOAD DUP1 PUSH1 0x40 ADD PUSH1 0x40 MSTORE DUP1 PUSH1 0x1 DUP2 MSTORE PUSH1 0x20 ADD PUSH32 0x3000000000000000000000000000000000000000000000000000000000000000 DUP2 MSTORE POP SWAP1 POP PUSH2 0x824 JUMP JUMPDEST PUSH1 0x0 DUP3 SWAP1 POP PUSH1 0x0 JUMPDEST PUSH1 0x0 DUP3 EQ PUSH2 0x71A JUMPI DUP1 DUP1 PUSH2 0x703 SWAP1 PUSH2 0xFAD JUMP JUMPDEST SWAP2 POP POP PUSH1 0xA DUP3 PUSH2 0x713 SWAP2 SWAP1 PUSH2 0xE32 JUMP JUMPDEST SWAP2 POP PUSH2 0x6F0 JUMP JUMPDEST PUSH1 0x0 DUP2 PUSH8 0xFFFFFFFFFFFFFFFF DUP2 GT ISZERO PUSH2 0x736 JUMPI PUSH2 0x735 PUSH2 0x10B2 JUMP JUMPDEST JUMPDEST PUSH1 0x40 MLOAD SWAP1 DUP1 DUP3 MSTORE DUP1 PUSH1 0x1F ADD PUSH1 0x1F NOT AND PUSH1 0x20 ADD DUP3 ADD PUSH1 0x40 MSTORE DUP1 ISZERO PUSH2 0x768 JUMPI DUP2 PUSH1 0x20 ADD PUSH1 0x1 DUP3 MUL DUP1 CALLDATASIZE DUP4 CALLDATACOPY DUP1 DUP3 ADD SWAP2 POP POP SWAP1 POP JUMPDEST POP SWAP1 POP PUSH1 0x0 DUP3 SWAP1 POP JUMPDEST PUSH1 0x0 DUP7 EQ PUSH2 0x81C JUMPI PUSH1 0x1 DUP2 PUSH2 0x786 SWAP2 SWAP1 PUSH2 0xEBD JUMP JUMPDEST SWAP1 POP PUSH1 0x0 PUSH1 0xA DUP1 DUP9 PUSH2 0x798 SWAP2 SWAP1 PUSH2 0xE32 JUMP JUMPDEST PUSH2 0x7A2 SWAP2 SWAP1 PUSH2 0xE63 JUMP JUMPDEST DUP8 PUSH2 0x7AD SWAP2 SWAP1 PUSH2 0xEBD JUMP JUMPDEST PUSH1 0x30 PUSH2 0x7B9 SWAP2 SWAP1 PUSH2 0xDFB JUMP JUMPDEST SWAP1 POP PUSH1 0x0 DUP2 PUSH1 0xF8 SHL SWAP1 POP DUP1 DUP5 DUP5 DUP2 MLOAD DUP2 LT PUSH2 0x7D7 JUMPI PUSH2 0x7D6 PUSH2 0x1083 JUMP JUMPDEST JUMPDEST PUSH1 0x20 ADD ADD SWAP1 PUSH31 0xFFFFFFFFFFFFFFFFFFFFFFFFFFFFFFFFFFFFFFFFFFFFFFFFFFFFFFFFFFFFFF NOT AND SWAP1 DUP2 PUSH1 0x0 BYTE SWAP1 MSTORE8 POP PUSH1 0xA DUP9 PUSH2 0x813 SWAP2 SWAP1 PUSH2 0xE32 JUMP JUMPDEST SWAP8 POP POP POP PUSH2 0x771 JUMP JUMPDEST DUP2 SWAP5 POP POP POP POP POP JUMPDEST SWAP2 SWAP1 POP JUMP JUMPDEST DUP3 DUP1 SLOAD PUSH2 0x835 SWAP1 PUSH2 0xF4A JUMP JUMPDEST SWAP1 PUSH1 0x0 MSTORE PUSH1 0x20 PUSH1 0x0 KECCAK256 SWAP1 PUSH1 0x1F ADD PUSH1 0x20 SWAP1 DIV DUP2 ADD SWAP3 DUP3 PUSH2 0x857 JUMPI PUSH1 0x0 DUP6 SSTORE PUSH2 0x89E JUMP JUMPDEST DUP3 PUSH1 0x1F LT PUSH2 0x870 JUMPI DUP1 MLOAD PUSH1 0xFF NOT AND DUP4 DUP1 ADD OR DUP6 SSTORE PUSH2 0x89E JUMP JUMPDEST DUP3 DUP1 ADD PUSH1 0x1 ADD DUP6 SSTORE DUP3 ISZERO PUSH2 0x89E JUMPI SWAP2 DUP3 ADD JUMPDEST DUP3 DUP2 GT ISZERO PUSH2 0x89D JUMPI DUP3 MLOAD DUP3 SSTORE SWAP2 PUSH1 0x20 ADD SWAP2 SWAP1 PUSH1 0x1 ADD SWAP1 PUSH2 0x882 JUMP JUMPDEST JUMPDEST POP SWAP1 POP PUSH2 0x8AB SWAP2 SWAP1 PUSH2 0x8AF JUMP JUMPDEST POP SWAP1 JUMP JUMPDEST JUMPDEST DUP1 DUP3 GT ISZERO PUSH2 0x8C8 JUMPI PUSH1 0x0 DUP2 PUSH1 0x0 SWAP1 SSTORE POP PUSH1 0x1 ADD PUSH2 0x8B0 JUMP JUMPDEST POP SWAP1 JUMP JUMPDEST PUSH1 0x0 PUSH2 0x8DF PUSH2 0x8DA DUP5 PUSH2 0xD38 JUMP JUMPDEST PUSH2 0xD13 JUMP JUMPDEST SWAP1 POP DUP3 DUP2 MSTORE PUSH1 0x20 DUP2 ADD DUP5 DUP5 DUP5 ADD GT ISZERO PUSH2 0x8FB JUMPI PUSH2 0x8FA PUSH2 0x10E6 JUMP JUMPDEST JUMPDEST PUSH2 0x906 DUP5 DUP3 DUP6 PUSH2 0xF08 JUMP JUMPDEST POP SWAP4 SWAP3 POP POP POP JUMP JUMPDEST PUSH1 0x0 DUP3 PUSH1 0x1F DUP4 ADD SLT PUSH2 0x923 JUMPI PUSH2 0x922 PUSH2 0x10E1 JUMP JUMPDEST JUMPDEST DUP2 CALLDATALOAD PUSH2 0x933 DUP5 DUP3 PUSH1 0x20 DUP7 ADD PUSH2 0x8CC JUMP JUMPDEST SWAP2 POP POP SWAP3 SWAP2 POP POP JUMP JUMPDEST PUSH1 0x0 DUP2 CALLDATALOAD SWAP1 POP PUSH2 0x94B DUP2 PUSH2 0x11F9 JUMP JUMPDEST SWAP3 SWAP2 POP POP JUMP JUMPDEST PUSH1 0x0 DUP1 PUSH1 0x40 DUP4 DUP6 SUB SLT ISZERO PUSH2 0x968 JUMPI PUSH2 0x967 PUSH2 0x10F0 JUMP JUMPDEST JUMPDEST PUSH1 0x0 DUP4 ADD CALLDATALOAD PUSH8 0xFFFFFFFFFFFFFFFF DUP2 GT ISZERO PUSH2 0x986 JUMPI PUSH2 0x985 PUSH2 0x10EB JUMP JUMPDEST JUMPDEST PUSH2 0x992 DUP6 DUP3 DUP7 ADD PUSH2 0x90E JUMP JUMPDEST SWAP3 POP POP PUSH1 0x20 DUP4 ADD CALLDATALOAD PUSH8 0xFFFFFFFFFFFFFFFF DUP2 GT ISZERO PUSH2 0x9B3 JUMPI PUSH2 0x9B2 PUSH2 0x10EB JUMP JUMPDEST JUMPDEST PUSH2 0x9BF DUP6 DUP3 DUP7 ADD PUSH2 0x90E JUMP JUMPDEST SWAP2 POP POP SWAP3 POP SWAP3 SWAP1 POP JUMP JUMPDEST PUSH1 0x0 DUP1 PUSH1 0x0 PUSH1 0x60 DUP5 DUP7 SUB SLT ISZERO PUSH2 0x9E2 JUMPI PUSH2 0x9E1 PUSH2 0x10F0 JUMP JUMPDEST JUMPDEST PUSH1 0x0 DUP5 ADD CALLDATALOAD PUSH8 0xFFFFFFFFFFFFFFFF DUP2 GT ISZERO PUSH2 0xA00 JUMPI PUSH2 0x9FF PUSH2 0x10EB JUMP JUMPDEST JUMPDEST PUSH2 0xA0C DUP7 DUP3 DUP8 ADD PUSH2 0x90E JUMP JUMPDEST SWAP4 POP POP PUSH1 0x20 PUSH2 0xA1D DUP7 DUP3 DUP8 ADD PUSH2 0x93C JUMP JUMPDEST SWAP3 POP POP PUSH1 0x40 DUP5 ADD CALLDATALOAD PUSH8 0xFFFFFFFFFFFFFFFF DUP2 GT ISZERO PUSH2 0xA3E JUMPI PUSH2 0xA3D PUSH2 0x10EB JUMP JUMPDEST JUMPDEST PUSH2 0xA4A DUP7 DUP3 DUP8 ADD PUSH2 0x90E JUMP JUMPDEST SWAP2 POP POP SWAP3 POP SWAP3 POP SWAP3 JUMP JUMPDEST PUSH1 0x0 PUSH2 0xA5F DUP3 PUSH2 0xD7E JUMP JUMPDEST PUSH2 0xA69 DUP2 DUP6 PUSH2 0xD89 JUMP JUMPDEST SWAP4 POP PUSH2 0xA79 DUP2 DUP6 PUSH1 0x20 DUP7 ADD PUSH2 0xF17 JUMP JUMPDEST PUSH2 0xA82 DUP2 PUSH2 0x10F5 JUMP JUMPDEST DUP5 ADD SWAP2 POP POP SWAP3 SWAP2 POP POP JUMP JUMPDEST PUSH1 0x0 PUSH2 0xA98 DUP3 PUSH2 0xD7E JUMP JUMPDEST PUSH2 0xAA2 DUP2 DUP6 PUSH2 0xD9A JUMP JUMPDEST SWAP4 POP PUSH2 0xAB2 DUP2 DUP6 PUSH1 0x20 DUP7 ADD PUSH2 0xF17 JUMP JUMPDEST DUP1 DUP5 ADD SWAP2 POP POP SWAP3 SWAP2 POP POP JUMP JUMPDEST PUSH1 0x0 DUP2 SLOAD PUSH2 0xACB DUP2 PUSH2 0xF4A JUMP JUMPDEST PUSH2 0xAD5 DUP2 DUP7 PUSH2 0xD9A JUMP JUMPDEST SWAP5 POP PUSH1 0x1 DUP3 AND PUSH1 0x0 DUP2 EQ PUSH2 0xAF0 JUMPI PUSH1 0x1 DUP2 EQ PUSH2 0xB01 JUMPI PUSH2 0xB34 JUMP JUMPDEST PUSH1 0xFF NOT DUP4 AND DUP7 MSTORE DUP2 DUP7 ADD SWAP4 POP PUSH2 0xB34 JUMP JUMPDEST PUSH2 0xB0A DUP6 PUSH2 0xD69 JUMP JUMPDEST PUSH1 0x0 JUMPDEST DUP4 DUP2 LT ISZERO PUSH2 0xB2C JUMPI DUP2 SLOAD DUP2 DUP10 ADD MSTORE PUSH1 0x1 DUP3 ADD SWAP2 POP PUSH1 0x20 DUP2 ADD SWAP1 POP PUSH2 0xB0D JUMP JUMPDEST DUP4 DUP9 ADD SWAP6 POP POP POP JUMPDEST POP POP POP SWAP3 SWAP2 POP POP JUMP JUMPDEST PUSH1 0x0 PUSH2 0xB4A PUSH1 0x1 DUP4 PUSH2 0xD9A JUMP JUMPDEST SWAP2 POP PUSH2 0xB55 DUP3 PUSH2 0x1106 JUMP JUMPDEST PUSH1 0x1 DUP3 ADD SWAP1 POP SWAP2 SWAP1 POP JUMP JUMPDEST PUSH1 0x0 PUSH2 0xB6D PUSH1 0x2A DUP4 PUSH2 0xD89 JUMP JUMPDEST SWAP2 POP PUSH2 0xB78 DUP3 PUSH2 0x112F JUMP JUMPDEST PUSH1 0x40 DUP3 ADD SWAP1 POP SWAP2 SWAP1 POP JUMP JUMPDEST PUSH1 0x0 PUSH2 0xB90 PUSH1 0x1F DUP4 PUSH2 0xD89 JUMP JUMPDEST SWAP2 POP PUSH2 0xB9B DUP3 PUSH2 0x117E JUMP JUMPDEST PUSH1 0x20 DUP3 ADD SWAP1 POP SWAP2 SWAP1 POP JUMP JUMPDEST PUSH1 0x0 PUSH2 0xBB3 PUSH1 0x1E DUP4 PUSH2 0xD89 JUMP JUMPDEST SWAP2 POP PUSH2 0xBBE DUP3 PUSH2 0x11A7 JUMP JUMPDEST PUSH1 0x20 DUP3 ADD SWAP1 POP SWAP2 SWAP1 POP JUMP JUMPDEST PUSH1 0x0 PUSH2 0xBD6 PUSH1 0x1 DUP4 PUSH2 0xD9A JUMP JUMPDEST SWAP2 POP PUSH2 0xBE1 DUP3 PUSH2 0x11D0 JUMP JUMPDEST PUSH1 0x1 DUP3 ADD SWAP1 POP SWAP2 SWAP1 POP JUMP JUMPDEST PUSH1 0x0 PUSH2 0xBF8 DUP3 DUP5 PUSH2 0xA8D JUMP JUMPDEST SWAP2 POP DUP2 SWAP1 POP SWAP3 SWAP2 POP POP JUMP JUMPDEST PUSH1 0x0 PUSH2 0xC0F DUP3 DUP7 PUSH2 0xA8D JUMP JUMPDEST SWAP2 POP PUSH2 0xC1A DUP3 PUSH2 0xB3D JUMP JUMPDEST SWAP2 POP PUSH2 0xC26 DUP3 DUP6 PUSH2 0xABE JUMP JUMPDEST SWAP2 POP PUSH2 0xC31 DUP3 PUSH2 0xBC9 JUMP JUMPDEST SWAP2 POP PUSH2 0xC3D DUP3 DUP5 PUSH2 0xA8D JUMP JUMPDEST SWAP2 POP DUP2 SWAP1 POP SWAP5 SWAP4 POP POP POP POP JUMP JUMPDEST PUSH1 0x0 PUSH2 0xC56 DUP3 DUP7 PUSH2 0xA8D JUMP JUMPDEST SWAP2 POP PUSH2 0xC61 DUP3 PUSH2 0xB3D JUMP JUMPDEST SWAP2 POP PUSH2 0xC6D DUP3 DUP6 PUSH2 0xABE JUMP JUMPDEST SWAP2 POP PUSH2 0xC78 DUP3 PUSH2 0xBC9 JUMP JUMPDEST SWAP2 POP PUSH2 0xC84 DUP3 DUP5 PUSH2 0xABE JUMP JUMPDEST SWAP2 POP DUP2 SWAP1 POP SWAP5 SWAP4 POP POP POP POP JUMP JUMPDEST PUSH1 0x0 PUSH1 0x20 DUP3 ADD SWAP1 POP DUP2 DUP2 SUB PUSH1 0x0 DUP4 ADD MSTORE PUSH2 0xCAB DUP2 DUP5 PUSH2 0xA54 JUMP JUMPDEST SWAP1 POP SWAP3 SWAP2 POP POP JUMP JUMPDEST PUSH1 0x0 PUSH1 0x20 DUP3 ADD SWAP1 POP DUP2 DUP2 SUB PUSH1 0x0 DUP4 ADD MSTORE PUSH2 0xCCC DUP2 PUSH2 0xB60 JUMP JUMPDEST SWAP1 POP SWAP2 SWAP1 POP JUMP JUMPDEST PUSH1 0x0 PUSH1 0x20 DUP3 ADD SWAP1 POP DUP2 DUP2 SUB PUSH1 0x0 DUP4 ADD MSTORE PUSH2 0xCEC DUP2 PUSH2 0xB83 JUMP JUMPDEST SWAP1 POP SWAP2 SWAP1 POP JUMP JUMPDEST PUSH1 0x0 PUSH1 0x20 DUP3 ADD SWAP1 POP DUP2 DUP2 SUB PUSH1 0x0 DUP4 ADD MSTORE PUSH2 0xD0C DUP2 PUSH2 0xBA6 JUMP JUMPDEST SWAP1 POP SWAP2 SWAP1 POP JUMP JUMPDEST PUSH1 0x0 PUSH2 0xD1D PUSH2 0xD2E JUMP JUMPDEST SWAP1 POP PUSH2 0xD29 DUP3 DUP3 PUSH2 0xF7C JUMP JUMPDEST SWAP2 SWAP1 POP JUMP JUMPDEST PUSH1 0x0 PUSH1 0x40 MLOAD SWAP1 POP SWAP1 JUMP JUMPDEST PUSH1 0x0 PUSH8 0xFFFFFFFFFFFFFFFF DUP3 GT ISZERO PUSH2 0xD53 JUMPI PUSH2 0xD52 PUSH2 0x10B2 JUMP JUMPDEST JUMPDEST PUSH2 0xD5C DUP3 PUSH2 0x10F5 JUMP JUMPDEST SWAP1 POP PUSH1 0x20 DUP2 ADD SWAP1 POP SWAP2 SWAP1 POP JUMP JUMPDEST PUSH1 0x0 DUP2 SWAP1 POP DUP2 PUSH1 0x0 MSTORE PUSH1 0x20 PUSH1 0x0 KECCAK256 SWAP1 POP SWAP2 SWAP1 POP JUMP JUMPDEST PUSH1 0x0 DUP2 MLOAD SWAP1 POP SWAP2 SWAP1 POP JUMP JUMPDEST PUSH1 0x0 DUP3 DUP3 MSTORE PUSH1 0x20 DUP3 ADD SWAP1 POP SWAP3 SWAP2 POP POP JUMP JUMPDEST PUSH1 0x0 DUP2 SWAP1 POP SWAP3 SWAP2 POP POP JUMP JUMPDEST PUSH1 0x0 PUSH2 0xDB0 DUP3 PUSH2 0xEF1 JUMP JUMPDEST SWAP2 POP PUSH2 0xDBB DUP4 PUSH2 0xEF1 JUMP JUMPDEST SWAP3 POP DUP3 PUSH32 0xFFFFFFFFFFFFFFFFFFFFFFFFFFFFFFFFFFFFFFFFFFFFFFFFFFFFFFFFFFFFFFFF SUB DUP3 GT ISZERO PUSH2 0xDF0 JUMPI PUSH2 0xDEF PUSH2 0xFF6 JUMP JUMPDEST JUMPDEST DUP3 DUP3 ADD SWAP1 POP SWAP3 SWAP2 POP POP JUMP JUMPDEST PUSH1 0x0 PUSH2 0xE06 DUP3 PUSH2 0xEFB JUMP JUMPDEST SWAP2 POP PUSH2 0xE11 DUP4 PUSH2 0xEFB JUMP JUMPDEST SWAP3 POP DUP3 PUSH1 0xFF SUB DUP3 GT ISZERO PUSH2 0xE27 JUMPI PUSH2 0xE26 PUSH2 0xFF6 JUMP JUMPDEST JUMPDEST DUP3 DUP3 ADD SWAP1 POP SWAP3 SWAP2 POP POP JUMP JUMPDEST PUSH1 0x0 PUSH2 0xE3D DUP3 PUSH2 0xEF1 JUMP JUMPDEST SWAP2 POP PUSH2 0xE48 DUP4 PUSH2 0xEF1 JUMP JUMPDEST SWAP3 POP DUP3 PUSH2 0xE58 JUMPI PUSH2 0xE57 PUSH2 0x1025 JUMP JUMPDEST JUMPDEST DUP3 DUP3 DIV SWAP1 POP SWAP3 SWAP2 POP POP JUMP JUMPDEST PUSH1 0x0 PUSH2 0xE6E DUP3 PUSH2 0xEF1 JUMP JUMPDEST SWAP2 POP PUSH2 0xE79 DUP4 PUSH2 0xEF1 JUMP JUMPDEST SWAP3 POP DUP2 PUSH32 0xFFFFFFFFFFFFFFFFFFFFFFFFFFFFFFFFFFFFFFFFFFFFFFFFFFFFFFFFFFFFFFFF DIV DUP4 GT DUP3 ISZERO ISZERO AND ISZERO PUSH2 0xEB2 JUMPI PUSH2 0xEB1 PUSH2 0xFF6 JUMP JUMPDEST JUMPDEST DUP3 DUP3 MUL SWAP1 POP SWAP3 SWAP2 POP POP JUMP JUMPDEST PUSH1 0x0 PUSH2 0xEC8 DUP3 PUSH2 0xEF1 JUMP JUMPDEST SWAP2 POP PUSH2 0xED3 DUP4 PUSH2 0xEF1 JUMP JUMPDEST SWAP3 POP DUP3 DUP3 LT ISZERO PUSH2 0xEE6 JUMPI PUSH2 0xEE5 PUSH2 0xFF6 JUMP JUMPDEST JUMPDEST DUP3 DUP3 SUB SWAP1 POP SWAP3 SWAP2 POP POP JUMP JUMPDEST PUSH1 0x0 DUP2 SWAP1 POP SWAP2 SWAP1 POP JUMP JUMPDEST PUSH1 0x0 PUSH1 0xFF DUP3 AND SWAP1 POP SWAP2 SWAP1 POP JUMP JUMPDEST DUP3 DUP2 DUP4 CALLDATACOPY PUSH1 0x0 DUP4 DUP4 ADD MSTORE POP POP POP JUMP JUMPDEST PUSH1 0x0 JUMPDEST DUP4 DUP2 LT ISZERO PUSH2 0xF35 JUMPI DUP1 DUP3 ADD MLOAD DUP2 DUP5 ADD MSTORE PUSH1 0x20 DUP2 ADD SWAP1 POP PUSH2 0xF1A JUMP JUMPDEST DUP4 DUP2 GT ISZERO PUSH2 0xF44 JUMPI PUSH1 0x0 DUP5 DUP5 ADD MSTORE JUMPDEST POP POP POP POP JUMP JUMPDEST PUSH1 0x0 PUSH1 0x2 DUP3 DIV SWAP1 POP PUSH1 0x1 DUP3 AND DUP1 PUSH2 0xF62 JUMPI PUSH1 0x7F DUP3 AND SWAP2 POP JUMPDEST PUSH1 0x20 DUP3 LT DUP2 EQ ISZERO PUSH2 0xF76 JUMPI PUSH2 0xF75 PUSH2 0x1054 JUMP JUMPDEST JUMPDEST POP SWAP2 SWAP1 POP JUMP JUMPDEST PUSH2 0xF85 DUP3 PUSH2 0x10F5 JUMP JUMPDEST DUP2 ADD DUP2 DUP2 LT PUSH8 0xFFFFFFFFFFFFFFFF DUP3 GT OR ISZERO PUSH2 0xFA4 JUMPI PUSH2 0xFA3 PUSH2 0x10B2 JUMP JUMPDEST JUMPDEST DUP1 PUSH1 0x40 MSTORE POP POP POP JUMP JUMPDEST PUSH1 0x0 PUSH2 0xFB8 DUP3 PUSH2 0xEF1 JUMP JUMPDEST SWAP2 POP PUSH32 0xFFFFFFFFFFFFFFFFFFFFFFFFFFFFFFFFFFFFFFFFFFFFFFFFFFFFFFFFFFFFFFFF DUP3 EQ ISZERO PUSH2 0xFEB JUMPI PUSH2 0xFEA PUSH2 0xFF6 JUMP JUMPDEST JUMPDEST PUSH1 0x1 DUP3 ADD SWAP1 POP SWAP2 SWAP1 POP JUMP JUMPDEST PUSH32 0x4E487B7100000000000000000000000000000000000000000000000000000000 PUSH1 0x0 MSTORE PUSH1 0x11 PUSH1 0x4 MSTORE PUSH1 0x24 PUSH1 0x0 REVERT JUMPDEST PUSH32 0x4E487B7100000000000000000000000000000000000000000000000000000000 PUSH1 0x0 MSTORE PUSH1 0x12 PUSH1 0x4 MSTORE PUSH1 0x24 PUSH1 0x0 REVERT JUMPDEST PUSH32 0x4E487B7100000000000000000000000000000000000000000000000000000000 PUSH1 0x0 MSTORE PUSH1 0x22 PUSH1 0x4 MSTORE PUSH1 0x24 PUSH1 0x0 REVERT JUMPDEST PUSH32 0x4E487B7100000000000000000000000000000000000000000000000000000000 PUSH1 0x0 MSTORE PUSH1 0x32 PUSH1 0x4 MSTORE PUSH1 0x24 PUSH1 0x0 REVERT JUMPDEST PUSH32 0x4E487B7100000000000000000000000000000000000000000000000000000000 PUSH1 0x0 MSTORE PUSH1 0x41 PUSH1 0x4 MSTORE PUSH1 0x24 PUSH1 0x0 REVERT JUMPDEST PUSH1 0x0 DUP1 REVERT JUMPDEST PUSH1 0x0 DUP1 REVERT JUMPDEST PUSH1 0x0 DUP1 REVERT JUMPDEST PUSH1 0x0 DUP1 REVERT JUMPDEST PUSH1 0x0 PUSH1 0x1F NOT PUSH1 0x1F DUP4 ADD AND SWAP1 POP SWAP2 SWAP1 POP JUMP JUMPDEST PUSH32 0x2A00000000000000000000000000000000000000000000000000000000000000 PUSH1 0x0 DUP3 ADD MSTORE POP JUMP JUMPDEST PUSH32 0x457374652063616E64696461746F20796120736520656E6375656E7472612072 PUSH1 0x0 DUP3 ADD MSTORE PUSH32 0x65676973747261646F2E00000000000000000000000000000000000000000000 PUSH1 0x20 DUP3 ADD MSTORE POP JUMP JUMPDEST PUSH32 0x456C2063616E64696461746F20656C656769646F206E6F206578697374652E00 PUSH1 0x0 DUP3 ADD MSTORE POP JUMP JUMPDEST PUSH32 0x5573746564207961206861207265616C697A61646F20737520766F746F2E0000 PUSH1 0x0 DUP3 ADD MSTORE POP JUMP JUMPDEST PUSH32 0x3A00000000000000000000000000000000000000000000000000000000000000 PUSH1 0x0 DUP3 ADD MSTORE POP JUMP JUMPDEST PUSH2 0x1202 DUP2 PUSH2 0xEF1 JUMP JUMPDEST DUP2 EQ PUSH2 0x120D JUMPI PUSH1 0x0 DUP1 REVERT JUMPDEST POP JUMP INVALID LOG2 PUSH5 0x6970667358 0x22 SLT KECCAK256 GASLIMIT PUSH13 0xAA28F5A4B06DA02C920F6B74C1 MUL PUSH26 0xDA3F7246D2A0CE7AD7F6175A1B681264736F6C63430008070033 "
		},
		"gasEstimates": {
			"creation": {
				"codeDepositCost": "935600",
				"executionCost": "25241",
				"totalCost": "960841"
			},
			"external": {
				"Representar(string,uint256,string)": "infinite",
				"Resultados()": "infinite",
				"VerCandidatos()": "infinite",
				"Votar(string,string)": "infinite"
			},
			"internal": {
				"ChequearCandidato(bytes32)": "infinite",
				"uint2str(uint256)": "infinite"
			}
		},
		"methodIdentifiers": {
			"Representar(string,uint256,string)": "f01ca6b7",
			"Resultados()": "c590fa9e",
			"VerCandidatos()": "bfc2e938",
			"Votar(string,string)": "416928dd"
		}
	},
	"abi": [
		{
			"inputs": [],
			"stateMutability": "nonpayable",
			"type": "constructor"
		},
		{
			"inputs": [
				{
					"internalType": "string",
					"name": "_nombreApellido",
					"type": "string"
				},
				{
					"internalType": "uint256",
					"name": "_edad",
					"type": "uint256"
				},
				{
					"internalType": "string",
					"name": "_id",
					"type": "string"
				}
			],
			"name": "Representar",
			"outputs": [],
			"stateMutability": "nonpayable",
			"type": "function"
		},
		{
			"inputs": [],
			"name": "Resultados",
			"outputs": [
				{
					"internalType": "string",
					"name": "",
					"type": "string"
				}
			],
			"stateMutability": "view",
			"type": "function"
		},
		{
			"inputs": [],
			"name": "VerCandidatos",
			"outputs": [
				{
					"internalType": "string",
					"name": "",
					"type": "string"
				}
			],
			"stateMutability": "view",
			"type": "function"
		},
		{
			"inputs": [
				{
					"internalType": "string",
					"name": "_idCandidato",
					"type": "string"
				},
				{
					"internalType": "string",
					"name": "_idVotante",
					"type": "string"
				}
			],
			"name": "Votar",
			"outputs": [],
			"stateMutability": "nonpayable",
			"type": "function"
		}
	]
}